{
	"contracts/JF.sol": {
		"ScheduleProcessor": {
			"abi": [
				{
					"inputs": [
						{
							"internalType": "uint256",
							"name": "providedTime",
							"type": "uint256"
						}
					],
					"name": "BusinessClosed",
					"type": "error"
				},
				{
					"inputs": [],
					"name": "OnBreak",
					"type": "error"
				},
				{
					"inputs": [
						{
							"internalType": "uint256",
							"name": "val",
							"type": "uint256"
						}
					],
					"name": "checkDivisibility",
					"outputs": [
						{
							"internalType": "string",
							"name": "output",
							"type": "string"
						}
					],
					"stateMutability": "pure",
					"type": "function"
				},
				{
					"inputs": [
						{
							"internalType": "uint256",
							"name": "t",
							"type": "uint256"
						}
					],
					"name": "getStatusByTime",
					"outputs": [
						{
							"internalType": "string",
							"name": "status",
							"type": "string"
						}
					],
					"stateMutability": "pure",
					"type": "function"
				}
			],
			"devdoc": {
				"kind": "dev",
				"methods": {},
				"version": 1
			},
			"evm": {
				"assembly": "    /* \"contracts/JF.sol\":58:1988  contract ScheduleProcessor {... */\n  mstore(0x40, 0x80)\n  callvalue\n  dup1\n  iszero\n  tag_1\n  jumpi\n  revert(0x00, 0x00)\ntag_1:\n  pop\n  dataSize(sub_0)\n  dup1\n  dataOffset(sub_0)\n  0x00\n  codecopy\n  0x00\n  return\nstop\n\nsub_0: assembly {\n        /* \"contracts/JF.sol\":58:1988  contract ScheduleProcessor {... */\n      mstore(0x40, 0x80)\n      callvalue\n      dup1\n      iszero\n      tag_1\n      jumpi\n      revert(0x00, 0x00)\n    tag_1:\n      pop\n      jumpi(tag_2, lt(calldatasize, 0x04))\n      shr(0xe0, calldataload(0x00))\n      dup1\n      0x03b06eb1\n      eq\n      tag_3\n      jumpi\n      dup1\n      0x30e7f6bb\n      eq\n      tag_4\n      jumpi\n    tag_2:\n      revert(0x00, 0x00)\n        /* \"contracts/JF.sol\":946:1986  function getStatusByTime(uint256 t) public pure returns (string memory status) {... */\n    tag_3:\n      tag_5\n      0x04\n      dup1\n      calldatasize\n      sub\n      dup2\n      add\n      swap1\n      tag_6\n      swap2\n      swap1\n      tag_7\n      jump\t// in\n    tag_6:\n      tag_8\n      jump\t// in\n    tag_5:\n      mload(0x40)\n      tag_9\n      swap2\n      swap1\n      tag_10\n      jump\t// in\n    tag_9:\n      mload(0x40)\n      dup1\n      swap2\n      sub\n      swap1\n      return\n        /* \"contracts/JF.sol\":282:882  function checkDivisibility(uint256 val) public pure returns (string memory output) {... */\n    tag_4:\n      tag_11\n      0x04\n      dup1\n      calldatasize\n      sub\n      dup2\n      add\n      swap1\n      tag_12\n      swap2\n      swap1\n      tag_7\n      jump\t// in\n    tag_12:\n      tag_13\n      jump\t// in\n    tag_11:\n      mload(0x40)\n      tag_14\n      swap2\n      swap1\n      tag_10\n      jump\t// in\n    tag_14:\n      mload(0x40)\n      dup1\n      swap2\n      sub\n      swap1\n      return\n        /* \"contracts/JF.sol\":946:1986  function getStatusByTime(uint256 t) public pure returns (string memory status) {... */\n    tag_8:\n        /* \"contracts/JF.sol\":1003:1023  string memory status */\n      0x60\n        /* \"contracts/JF.sol\":1164:1168  2400 */\n      0x0960\n        /* \"contracts/JF.sol\":1159:1160  t */\n      dup3\n        /* \"contracts/JF.sol\":1159:1168  t >= 2400 */\n      lt\n        /* \"contracts/JF.sol\":1150:1170  assert(!(t >= 2400)) */\n      tag_16\n      jumpi\n      tag_17\n      tag_18\n      jump\t// in\n    tag_17:\n    tag_16:\n        /* \"contracts/JF.sol\":1427:1430  800 */\n      0x0320\n        /* \"contracts/JF.sol\":1422:1423  t */\n      dup3\n        /* \"contracts/JF.sol\":1422:1430  t >= 800 */\n      lt\n      iszero\n        /* \"contracts/JF.sol\":1422:1442  t >= 800 && t < 1200 */\n      dup1\n      iszero\n      tag_19\n      jumpi\n      pop\n        /* \"contracts/JF.sol\":1438:1442  1200 */\n      0x04b0\n        /* \"contracts/JF.sol\":1434:1435  t */\n      dup3\n        /* \"contracts/JF.sol\":1434:1442  t < 1200 */\n      lt\n        /* \"contracts/JF.sol\":1422:1442  t >= 800 && t < 1200 */\n    tag_19:\n        /* \"contracts/JF.sol\":1418:1486  if (t >= 800 && t < 1200) {... */\n      iszero\n      tag_20\n      jumpi\n        /* \"contracts/JF.sol\":1458:1475  return \"Morning!\" */\n      mload(0x40)\n      dup1\n      0x40\n      add\n      0x40\n      mstore\n      dup1\n      0x08\n      dup2\n      mstore\n      0x20\n      add\n      0x4d6f726e696e6721000000000000000000000000000000000000000000000000\n      dup2\n      mstore\n      pop\n      swap1\n      pop\n      jump(tag_15)\n        /* \"contracts/JF.sol\":1418:1486  if (t >= 800 && t < 1200) {... */\n    tag_20:\n        /* \"contracts/JF.sol\":1555:1559  1300 */\n      0x0514\n        /* \"contracts/JF.sol\":1550:1551  t */\n      dup3\n        /* \"contracts/JF.sol\":1550:1559  t >= 1300 */\n      lt\n      iszero\n        /* \"contracts/JF.sol\":1550:1571  t >= 1300 && t < 1800 */\n      dup1\n      iszero\n      tag_21\n      jumpi\n      pop\n        /* \"contracts/JF.sol\":1567:1571  1800 */\n      0x0708\n        /* \"contracts/JF.sol\":1563:1564  t */\n      dup3\n        /* \"contracts/JF.sol\":1563:1571  t < 1800 */\n      lt\n        /* \"contracts/JF.sol\":1550:1571  t >= 1300 && t < 1800 */\n    tag_21:\n        /* \"contracts/JF.sol\":1546:1617  if (t >= 1300 && t < 1800) {... */\n      iszero\n      tag_22\n      jumpi\n        /* \"contracts/JF.sol\":1587:1606  return \"Afternoon!\" */\n      mload(0x40)\n      dup1\n      0x40\n      add\n      0x40\n      mstore\n      dup1\n      0x0a\n      dup2\n      mstore\n      0x20\n      add\n      0x41667465726e6f6f6e2100000000000000000000000000000000000000000000\n      dup2\n      mstore\n      pop\n      swap1\n      pop\n      jump(tag_15)\n        /* \"contracts/JF.sol\":1546:1617  if (t >= 1300 && t < 1800) {... */\n    tag_22:\n        /* \"contracts/JF.sol\":1684:1688  1800 */\n      0x0708\n        /* \"contracts/JF.sol\":1679:1680  t */\n      dup3\n        /* \"contracts/JF.sol\":1679:1688  t >= 1800 */\n      lt\n      iszero\n        /* \"contracts/JF.sol\":1679:1701  t >= 1800 && t <= 2200 */\n      dup1\n      iszero\n      tag_23\n      jumpi\n      pop\n        /* \"contracts/JF.sol\":1697:1701  2200 */\n      0x0898\n        /* \"contracts/JF.sol\":1692:1693  t */\n      dup3\n        /* \"contracts/JF.sol\":1692:1701  t <= 2200 */\n      gt\n      iszero\n        /* \"contracts/JF.sol\":1679:1701  t >= 1800 && t <= 2200 */\n    tag_23:\n        /* \"contracts/JF.sol\":1675:1745  if (t >= 1800 && t <= 2200) {... */\n      iszero\n      tag_24\n      jumpi\n        /* \"contracts/JF.sol\":1717:1734  return \"Evening!\" */\n      mload(0x40)\n      dup1\n      0x40\n      add\n      0x40\n      mstore\n      dup1\n      0x08\n      dup2\n      mstore\n      0x20\n      add\n      0x4576656e696e6721000000000000000000000000000000000000000000000000\n      dup2\n      mstore\n      pop\n      swap1\n      pop\n      jump(tag_15)\n        /* \"contracts/JF.sol\":1675:1745  if (t >= 1800 && t <= 2200) {... */\n    tag_24:\n        /* \"contracts/JF.sol\":1811:1815  1200 */\n      0x04b0\n        /* \"contracts/JF.sol\":1806:1807  t */\n      dup3\n        /* \"contracts/JF.sol\":1806:1815  t >= 1200 */\n      lt\n      iszero\n        /* \"contracts/JF.sol\":1806:1827  t >= 1200 && t < 1300 */\n      dup1\n      iszero\n      tag_25\n      jumpi\n      pop\n        /* \"contracts/JF.sol\":1823:1827  1300 */\n      0x0514\n        /* \"contracts/JF.sol\":1819:1820  t */\n      dup3\n        /* \"contracts/JF.sol\":1819:1827  t < 1300 */\n      lt\n        /* \"contracts/JF.sol\":1806:1827  t >= 1200 && t < 1300 */\n    tag_25:\n        /* \"contracts/JF.sol\":1802:1870  if (t >= 1200 && t < 1300) {... */\n      iszero\n      tag_26\n      jumpi\n        /* \"contracts/JF.sol\":1850:1859  OnBreak() */\n      mload(0x40)\n      0x6e24fdab00000000000000000000000000000000000000000000000000000000\n      dup2\n      mstore\n      0x04\n      add\n      mload(0x40)\n      dup1\n      swap2\n      sub\n      swap1\n      revert\n        /* \"contracts/JF.sol\":1802:1870  if (t >= 1200 && t < 1300) {... */\n    tag_26:\n        /* \"contracts/JF.sol\":1977:1978  t */\n      dup2\n        /* \"contracts/JF.sol\":1962:1979  BusinessClosed(t) */\n      mload(0x40)\n      0x519b5a9400000000000000000000000000000000000000000000000000000000\n      dup2\n      mstore\n      0x04\n      add\n      tag_27\n      swap2\n      swap1\n      tag_28\n      jump\t// in\n    tag_27:\n      mload(0x40)\n      dup1\n      swap2\n      sub\n      swap1\n      revert\n        /* \"contracts/JF.sol\":946:1986  function getStatusByTime(uint256 t) public pure returns (string memory status) {... */\n    tag_15:\n      swap2\n      swap1\n      pop\n      jump\t// out\n        /* \"contracts/JF.sol\":282:882  function checkDivisibility(uint256 val) public pure returns (string memory output) {... */\n    tag_13:\n        /* \"contracts/JF.sol\":343:363  string memory output */\n      0x60\n        /* \"contracts/JF.sol\":607:608  0 */\n      0x00\n        /* \"contracts/JF.sol\":601:603  15 */\n      0x0f\n        /* \"contracts/JF.sol\":595:598  val */\n      dup4\n        /* \"contracts/JF.sol\":595:603  val % 15 */\n      tag_30\n      swap2\n      swap1\n      tag_31\n      jump\t// in\n    tag_30:\n        /* \"contracts/JF.sol\":595:608  val % 15 == 0 */\n      sub\n        /* \"contracts/JF.sol\":591:652  if (val % 15 == 0) {... */\n      tag_32\n      jumpi\n        /* \"contracts/JF.sol\":624:641  return \"FizzBuzz\" */\n      mload(0x40)\n      dup1\n      0x40\n      add\n      0x40\n      mstore\n      dup1\n      0x08\n      dup2\n      mstore\n      0x20\n      add\n      0x46697a7a42757a7a000000000000000000000000000000000000000000000000\n      dup2\n      mstore\n      pop\n      swap1\n      pop\n      jump(tag_29)\n        /* \"contracts/JF.sol\":591:652  if (val % 15 == 0) {... */\n    tag_32:\n        /* \"contracts/JF.sol\":685:686  0 */\n      0x00\n        /* \"contracts/JF.sol\":680:681  3 */\n      0x03\n        /* \"contracts/JF.sol\":674:677  val */\n      dup4\n        /* \"contracts/JF.sol\":674:681  val % 3 */\n      tag_33\n      swap2\n      swap1\n      tag_31\n      jump\t// in\n    tag_33:\n        /* \"contracts/JF.sol\":674:686  val % 3 == 0 */\n      sub\n        /* \"contracts/JF.sol\":670:726  if (val % 3 == 0) {... */\n      tag_34\n      jumpi\n        /* \"contracts/JF.sol\":702:715  return \"Fizz\" */\n      mload(0x40)\n      dup1\n      0x40\n      add\n      0x40\n      mstore\n      dup1\n      0x04\n      dup2\n      mstore\n      0x20\n      add\n      0x46697a7a00000000000000000000000000000000000000000000000000000000\n      dup2\n      mstore\n      pop\n      swap1\n      pop\n      jump(tag_29)\n        /* \"contracts/JF.sol\":670:726  if (val % 3 == 0) {... */\n    tag_34:\n        /* \"contracts/JF.sol\":759:760  0 */\n      0x00\n        /* \"contracts/JF.sol\":754:755  5 */\n      0x05\n        /* \"contracts/JF.sol\":748:751  val */\n      dup4\n        /* \"contracts/JF.sol\":748:755  val % 5 */\n      tag_35\n      swap2\n      swap1\n      tag_31\n      jump\t// in\n    tag_35:\n        /* \"contracts/JF.sol\":748:760  val % 5 == 0 */\n      sub\n        /* \"contracts/JF.sol\":744:800  if (val % 5 == 0) {... */\n      tag_36\n      jumpi\n        /* \"contracts/JF.sol\":776:789  return \"Buzz\" */\n      mload(0x40)\n      dup1\n      0x40\n      add\n      0x40\n      mstore\n      dup1\n      0x04\n      dup2\n      mstore\n      0x20\n      add\n      0x42757a7a00000000000000000000000000000000000000000000000000000000\n      dup2\n      mstore\n      pop\n      swap1\n      pop\n      jump(tag_29)\n        /* \"contracts/JF.sol\":744:800  if (val % 5 == 0) {... */\n    tag_36:\n        /* \"contracts/JF.sol\":861:875  return \"Splat\" */\n      mload(0x40)\n      dup1\n      0x40\n      add\n      0x40\n      mstore\n      dup1\n      0x05\n      dup2\n      mstore\n      0x20\n      add\n      0x53706c6174000000000000000000000000000000000000000000000000000000\n      dup2\n      mstore\n      pop\n      swap1\n      pop\n        /* \"contracts/JF.sol\":282:882  function checkDivisibility(uint256 val) public pure returns (string memory output) {... */\n    tag_29:\n      swap2\n      swap1\n      pop\n      jump\t// out\n        /* \"#utility.yul\":88:205   */\n    tag_38:\n        /* \"#utility.yul\":197:198   */\n      0x00\n        /* \"#utility.yul\":194:195   */\n      0x00\n        /* \"#utility.yul\":187:199   */\n      revert\n        /* \"#utility.yul\":334:411   */\n    tag_40:\n        /* \"#utility.yul\":371:378   */\n      0x00\n        /* \"#utility.yul\":400:405   */\n      dup2\n        /* \"#utility.yul\":389:405   */\n      swap1\n      pop\n        /* \"#utility.yul\":334:411   */\n      swap2\n      swap1\n      pop\n      jump\t// out\n        /* \"#utility.yul\":417:539   */\n    tag_41:\n        /* \"#utility.yul\":490:514   */\n      tag_56\n        /* \"#utility.yul\":508:513   */\n      dup2\n        /* \"#utility.yul\":490:514   */\n      tag_40\n      jump\t// in\n    tag_56:\n        /* \"#utility.yul\":483:488   */\n      dup2\n        /* \"#utility.yul\":480:515   */\n      eq\n        /* \"#utility.yul\":470:533   */\n      tag_57\n      jumpi\n        /* \"#utility.yul\":529:530   */\n      0x00\n        /* \"#utility.yul\":526:527   */\n      0x00\n        /* \"#utility.yul\":519:531   */\n      revert\n        /* \"#utility.yul\":470:533   */\n    tag_57:\n        /* \"#utility.yul\":417:539   */\n      pop\n      jump\t// out\n        /* \"#utility.yul\":545:684   */\n    tag_42:\n        /* \"#utility.yul\":591:596   */\n      0x00\n        /* \"#utility.yul\":629:635   */\n      dup2\n        /* \"#utility.yul\":616:636   */\n      calldataload\n        /* \"#utility.yul\":607:636   */\n      swap1\n      pop\n        /* \"#utility.yul\":645:678   */\n      tag_59\n        /* \"#utility.yul\":672:677   */\n      dup2\n        /* \"#utility.yul\":645:678   */\n      tag_41\n      jump\t// in\n    tag_59:\n        /* \"#utility.yul\":545:684   */\n      swap3\n      swap2\n      pop\n      pop\n      jump\t// out\n        /* \"#utility.yul\":690:1019   */\n    tag_7:\n        /* \"#utility.yul\":749:755   */\n      0x00\n        /* \"#utility.yul\":798:800   */\n      0x20\n        /* \"#utility.yul\":786:795   */\n      dup3\n        /* \"#utility.yul\":777:784   */\n      dup5\n        /* \"#utility.yul\":773:796   */\n      sub\n        /* \"#utility.yul\":769:801   */\n      slt\n        /* \"#utility.yul\":766:885   */\n      iszero\n      tag_61\n      jumpi\n        /* \"#utility.yul\":804:883   */\n      tag_62\n      tag_38\n      jump\t// in\n    tag_62:\n        /* \"#utility.yul\":766:885   */\n    tag_61:\n        /* \"#utility.yul\":924:925   */\n      0x00\n        /* \"#utility.yul\":949:1002   */\n      tag_63\n        /* \"#utility.yul\":994:1001   */\n      dup5\n        /* \"#utility.yul\":985:991   */\n      dup3\n        /* \"#utility.yul\":974:983   */\n      dup6\n        /* \"#utility.yul\":970:992   */\n      add\n        /* \"#utility.yul\":949:1002   */\n      tag_42\n      jump\t// in\n    tag_63:\n        /* \"#utility.yul\":939:1002   */\n      swap2\n      pop\n        /* \"#utility.yul\":895:1012   */\n      pop\n        /* \"#utility.yul\":690:1019   */\n      swap3\n      swap2\n      pop\n      pop\n      jump\t// out\n        /* \"#utility.yul\":1025:1124   */\n    tag_43:\n        /* \"#utility.yul\":1077:1083   */\n      0x00\n        /* \"#utility.yul\":1111:1116   */\n      dup2\n        /* \"#utility.yul\":1105:1117   */\n      mload\n        /* \"#utility.yul\":1095:1117   */\n      swap1\n      pop\n        /* \"#utility.yul\":1025:1124   */\n      swap2\n      swap1\n      pop\n      jump\t// out\n        /* \"#utility.yul\":1130:1299   */\n    tag_44:\n        /* \"#utility.yul\":1214:1225   */\n      0x00\n        /* \"#utility.yul\":1248:1254   */\n      dup3\n        /* \"#utility.yul\":1243:1246   */\n      dup3\n        /* \"#utility.yul\":1236:1255   */\n      mstore\n        /* \"#utility.yul\":1288:1292   */\n      0x20\n        /* \"#utility.yul\":1283:1286   */\n      dup3\n        /* \"#utility.yul\":1279:1293   */\n      add\n        /* \"#utility.yul\":1264:1293   */\n      swap1\n      pop\n        /* \"#utility.yul\":1130:1299   */\n      swap3\n      swap2\n      pop\n      pop\n      jump\t// out\n        /* \"#utility.yul\":1305:1444   */\n    tag_45:\n        /* \"#utility.yul\":1394:1400   */\n      dup3\n        /* \"#utility.yul\":1389:1392   */\n      dup2\n        /* \"#utility.yul\":1384:1387   */\n      dup4\n        /* \"#utility.yul\":1378:1401   */\n      mcopy\n        /* \"#utility.yul\":1435:1436   */\n      0x00\n        /* \"#utility.yul\":1426:1432   */\n      dup4\n        /* \"#utility.yul\":1421:1424   */\n      dup4\n        /* \"#utility.yul\":1417:1433   */\n      add\n        /* \"#utility.yul\":1410:1437   */\n      mstore\n        /* \"#utility.yul\":1305:1444   */\n      pop\n      pop\n      pop\n      jump\t// out\n        /* \"#utility.yul\":1450:1552   */\n    tag_46:\n        /* \"#utility.yul\":1491:1497   */\n      0x00\n        /* \"#utility.yul\":1542:1544   */\n      0x1f\n        /* \"#utility.yul\":1538:1545   */\n      not\n        /* \"#utility.yul\":1533:1535   */\n      0x1f\n        /* \"#utility.yul\":1526:1531   */\n      dup4\n        /* \"#utility.yul\":1522:1536   */\n      add\n        /* \"#utility.yul\":1518:1546   */\n      and\n        /* \"#utility.yul\":1508:1546   */\n      swap1\n      pop\n        /* \"#utility.yul\":1450:1552   */\n      swap2\n      swap1\n      pop\n      jump\t// out\n        /* \"#utility.yul\":1558:1935   */\n    tag_47:\n        /* \"#utility.yul\":1646:1649   */\n      0x00\n        /* \"#utility.yul\":1674:1713   */\n      tag_69\n        /* \"#utility.yul\":1707:1712   */\n      dup3\n        /* \"#utility.yul\":1674:1713   */\n      tag_43\n      jump\t// in\n    tag_69:\n        /* \"#utility.yul\":1729:1800   */\n      tag_70\n        /* \"#utility.yul\":1793:1799   */\n      dup2\n        /* \"#utility.yul\":1788:1791   */\n      dup6\n        /* \"#utility.yul\":1729:1800   */\n      tag_44\n      jump\t// in\n    tag_70:\n        /* \"#utility.yul\":1722:1800   */\n      swap4\n      pop\n        /* \"#utility.yul\":1809:1874   */\n      tag_71\n        /* \"#utility.yul\":1867:1873   */\n      dup2\n        /* \"#utility.yul\":1862:1865   */\n      dup6\n        /* \"#utility.yul\":1855:1859   */\n      0x20\n        /* \"#utility.yul\":1848:1853   */\n      dup7\n        /* \"#utility.yul\":1844:1860   */\n      add\n        /* \"#utility.yul\":1809:1874   */\n      tag_45\n      jump\t// in\n    tag_71:\n        /* \"#utility.yul\":1899:1928   */\n      tag_72\n        /* \"#utility.yul\":1921:1927   */\n      dup2\n        /* \"#utility.yul\":1899:1928   */\n      tag_46\n      jump\t// in\n    tag_72:\n        /* \"#utility.yul\":1894:1897   */\n      dup5\n        /* \"#utility.yul\":1890:1929   */\n      add\n        /* \"#utility.yul\":1883:1929   */\n      swap2\n      pop\n        /* \"#utility.yul\":1650:1935   */\n      pop\n        /* \"#utility.yul\":1558:1935   */\n      swap3\n      swap2\n      pop\n      pop\n      jump\t// out\n        /* \"#utility.yul\":1941:2254   */\n    tag_10:\n        /* \"#utility.yul\":2054:2058   */\n      0x00\n        /* \"#utility.yul\":2092:2094   */\n      0x20\n        /* \"#utility.yul\":2081:2090   */\n      dup3\n        /* \"#utility.yul\":2077:2095   */\n      add\n        /* \"#utility.yul\":2069:2095   */\n      swap1\n      pop\n        /* \"#utility.yul\":2141:2150   */\n      dup2\n        /* \"#utility.yul\":2135:2139   */\n      dup2\n        /* \"#utility.yul\":2131:2151   */\n      sub\n        /* \"#utility.yul\":2127:2128   */\n      0x00\n        /* \"#utility.yul\":2116:2125   */\n      dup4\n        /* \"#utility.yul\":2112:2129   */\n      add\n        /* \"#utility.yul\":2105:2152   */\n      mstore\n        /* \"#utility.yul\":2169:2247   */\n      tag_74\n        /* \"#utility.yul\":2242:2246   */\n      dup2\n        /* \"#utility.yul\":2233:2239   */\n      dup5\n        /* \"#utility.yul\":2169:2247   */\n      tag_47\n      jump\t// in\n    tag_74:\n        /* \"#utility.yul\":2161:2247   */\n      swap1\n      pop\n        /* \"#utility.yul\":1941:2254   */\n      swap3\n      swap2\n      pop\n      pop\n      jump\t// out\n        /* \"#utility.yul\":2260:2440   */\n    tag_18:\n        /* \"#utility.yul\":2308:2385   */\n      0x4e487b7100000000000000000000000000000000000000000000000000000000\n        /* \"#utility.yul\":2305:2306   */\n      0x00\n        /* \"#utility.yul\":2298:2386   */\n      mstore\n        /* \"#utility.yul\":2405:2409   */\n      0x01\n        /* \"#utility.yul\":2402:2403   */\n      0x04\n        /* \"#utility.yul\":2395:2410   */\n      mstore\n        /* \"#utility.yul\":2429:2433   */\n      0x24\n        /* \"#utility.yul\":2426:2427   */\n      0x00\n        /* \"#utility.yul\":2419:2434   */\n      revert\n        /* \"#utility.yul\":2446:2564   */\n    tag_48:\n        /* \"#utility.yul\":2533:2557   */\n      tag_77\n        /* \"#utility.yul\":2551:2556   */\n      dup2\n        /* \"#utility.yul\":2533:2557   */\n      tag_40\n      jump\t// in\n    tag_77:\n        /* \"#utility.yul\":2528:2531   */\n      dup3\n        /* \"#utility.yul\":2521:2558   */\n      mstore\n        /* \"#utility.yul\":2446:2564   */\n      pop\n      pop\n      jump\t// out\n        /* \"#utility.yul\":2570:2792   */\n    tag_28:\n        /* \"#utility.yul\":2663:2667   */\n      0x00\n        /* \"#utility.yul\":2701:2703   */\n      0x20\n        /* \"#utility.yul\":2690:2699   */\n      dup3\n        /* \"#utility.yul\":2686:2704   */\n      add\n        /* \"#utility.yul\":2678:2704   */\n      swap1\n      pop\n        /* \"#utility.yul\":2714:2785   */\n      tag_79\n        /* \"#utility.yul\":2782:2783   */\n      0x00\n        /* \"#utility.yul\":2771:2780   */\n      dup4\n        /* \"#utility.yul\":2767:2784   */\n      add\n        /* \"#utility.yul\":2758:2764   */\n      dup5\n        /* \"#utility.yul\":2714:2785   */\n      tag_48\n      jump\t// in\n    tag_79:\n        /* \"#utility.yul\":2570:2792   */\n      swap3\n      swap2\n      pop\n      pop\n      jump\t// out\n        /* \"#utility.yul\":2798:2978   */\n    tag_49:\n        /* \"#utility.yul\":2846:2923   */\n      0x4e487b7100000000000000000000000000000000000000000000000000000000\n        /* \"#utility.yul\":2843:2844   */\n      0x00\n        /* \"#utility.yul\":2836:2924   */\n      mstore\n        /* \"#utility.yul\":2943:2947   */\n      0x12\n        /* \"#utility.yul\":2940:2941   */\n      0x04\n        /* \"#utility.yul\":2933:2948   */\n      mstore\n        /* \"#utility.yul\":2967:2971   */\n      0x24\n        /* \"#utility.yul\":2964:2965   */\n      0x00\n        /* \"#utility.yul\":2957:2972   */\n      revert\n        /* \"#utility.yul\":2984:3160   */\n    tag_31:\n        /* \"#utility.yul\":3016:3017   */\n      0x00\n        /* \"#utility.yul\":3033:3053   */\n      tag_82\n        /* \"#utility.yul\":3051:3052   */\n      dup3\n        /* \"#utility.yul\":3033:3053   */\n      tag_40\n      jump\t// in\n    tag_82:\n        /* \"#utility.yul\":3028:3053   */\n      swap2\n      pop\n        /* \"#utility.yul\":3067:3087   */\n      tag_83\n        /* \"#utility.yul\":3085:3086   */\n      dup4\n        /* \"#utility.yul\":3067:3087   */\n      tag_40\n      jump\t// in\n    tag_83:\n        /* \"#utility.yul\":3062:3087   */\n      swap3\n      pop\n        /* \"#utility.yul\":3106:3107   */\n      dup3\n        /* \"#utility.yul\":3096:3131   */\n      tag_84\n      jumpi\n        /* \"#utility.yul\":3111:3129   */\n      tag_85\n      tag_49\n      jump\t// in\n    tag_85:\n        /* \"#utility.yul\":3096:3131   */\n    tag_84:\n        /* \"#utility.yul\":3152:3153   */\n      dup3\n        /* \"#utility.yul\":3149:3150   */\n      dup3\n        /* \"#utility.yul\":3145:3154   */\n      mod\n        /* \"#utility.yul\":3140:3154   */\n      swap1\n      pop\n        /* \"#utility.yul\":2984:3160   */\n      swap3\n      swap2\n      pop\n      pop\n      jump\t// out\n\n    auxdata: 0xa2646970667358221220196f52c4a360e58e796db5d55950fcbf17984a023e6b39904952989bf9a06ee964736f6c634300081f0033\n}\n",
				"bytecode": {
					"linkReferences": {},
					"object": "6080604052348015600e575f5ffd5b506105428061001c5f395ff3fe608060405234801561000f575f5ffd5b5060043610610034575f3560e01c806303b06eb11461003857806330e7f6bb14610068575b5f5ffd5b610052600480360381019061004d919061039f565b610098565b60405161005f919061043a565b60405180910390f35b610082600480360381019061007d919061039f565b610238565b60405161008f919061043a565b60405180910390f35b606061096082106100ac576100ab61045a565b5b61032082101580156100bf57506104b082105b15610101576040518060400160405280600881526020017f4d6f726e696e67210000000000000000000000000000000000000000000000008152509050610233565b6105148210158015610114575061070882105b15610156576040518060400160405280600a81526020017f41667465726e6f6f6e21000000000000000000000000000000000000000000008152509050610233565b610708821015801561016a57506108988211155b156101ac576040518060400160405280600881526020017f4576656e696e67210000000000000000000000000000000000000000000000008152509050610233565b6104b082101580156101bf575061051482105b156101f6576040517f6e24fdab00000000000000000000000000000000000000000000000000000000815260040160405180910390fd5b816040517f519b5a9400000000000000000000000000000000000000000000000000000000815260040161022a9190610496565b60405180910390fd5b919050565b60605f600f8361024891906104dc565b0361028a576040518060400160405280600881526020017f46697a7a42757a7a0000000000000000000000000000000000000000000000008152509050610363565b5f60038361029891906104dc565b036102da576040518060400160405280600481526020017f46697a7a000000000000000000000000000000000000000000000000000000008152509050610363565b5f6005836102e891906104dc565b0361032a576040518060400160405280600481526020017f42757a7a000000000000000000000000000000000000000000000000000000008152509050610363565b6040518060400160405280600581526020017f53706c617400000000000000000000000000000000000000000000000000000081525090505b919050565b5f5ffd5b5f819050919050565b61037e8161036c565b8114610388575f5ffd5b50565b5f8135905061039981610375565b92915050565b5f602082840312156103b4576103b3610368565b5b5f6103c18482850161038b565b91505092915050565b5f81519050919050565b5f82825260208201905092915050565b8281835e5f83830152505050565b5f601f19601f8301169050919050565b5f61040c826103ca565b61041681856103d4565b93506104268185602086016103e4565b61042f816103f2565b840191505092915050565b5f6020820190508181035f8301526104528184610402565b905092915050565b7f4e487b71000000000000000000000000000000000000000000000000000000005f52600160045260245ffd5b6104908161036c565b82525050565b5f6020820190506104a95f830184610487565b92915050565b7f4e487b71000000000000000000000000000000000000000000000000000000005f52601260045260245ffd5b5f6104e68261036c565b91506104f18361036c565b925082610501576105006104af565b5b82820690509291505056fea2646970667358221220196f52c4a360e58e796db5d55950fcbf17984a023e6b39904952989bf9a06ee964736f6c634300081f0033",
					"opcodes": "PUSH1 0x80 PUSH1 0x40 MSTORE CALLVALUE DUP1 ISZERO PUSH1 0xE JUMPI PUSH0 PUSH0 REVERT JUMPDEST POP PUSH2 0x542 DUP1 PUSH2 0x1C PUSH0 CODECOPY PUSH0 RETURN INVALID PUSH1 0x80 PUSH1 0x40 MSTORE CALLVALUE DUP1 ISZERO PUSH2 0xF JUMPI PUSH0 PUSH0 REVERT JUMPDEST POP PUSH1 0x4 CALLDATASIZE LT PUSH2 0x34 JUMPI PUSH0 CALLDATALOAD PUSH1 0xE0 SHR DUP1 PUSH4 0x3B06EB1 EQ PUSH2 0x38 JUMPI DUP1 PUSH4 0x30E7F6BB EQ PUSH2 0x68 JUMPI JUMPDEST PUSH0 PUSH0 REVERT JUMPDEST PUSH2 0x52 PUSH1 0x4 DUP1 CALLDATASIZE SUB DUP2 ADD SWAP1 PUSH2 0x4D SWAP2 SWAP1 PUSH2 0x39F JUMP JUMPDEST PUSH2 0x98 JUMP JUMPDEST PUSH1 0x40 MLOAD PUSH2 0x5F SWAP2 SWAP1 PUSH2 0x43A JUMP JUMPDEST PUSH1 0x40 MLOAD DUP1 SWAP2 SUB SWAP1 RETURN JUMPDEST PUSH2 0x82 PUSH1 0x4 DUP1 CALLDATASIZE SUB DUP2 ADD SWAP1 PUSH2 0x7D SWAP2 SWAP1 PUSH2 0x39F JUMP JUMPDEST PUSH2 0x238 JUMP JUMPDEST PUSH1 0x40 MLOAD PUSH2 0x8F SWAP2 SWAP1 PUSH2 0x43A JUMP JUMPDEST PUSH1 0x40 MLOAD DUP1 SWAP2 SUB SWAP1 RETURN JUMPDEST PUSH1 0x60 PUSH2 0x960 DUP3 LT PUSH2 0xAC JUMPI PUSH2 0xAB PUSH2 0x45A JUMP JUMPDEST JUMPDEST PUSH2 0x320 DUP3 LT ISZERO DUP1 ISZERO PUSH2 0xBF JUMPI POP PUSH2 0x4B0 DUP3 LT JUMPDEST ISZERO PUSH2 0x101 JUMPI PUSH1 0x40 MLOAD DUP1 PUSH1 0x40 ADD PUSH1 0x40 MSTORE DUP1 PUSH1 0x8 DUP2 MSTORE PUSH1 0x20 ADD PUSH32 0x4D6F726E696E6721000000000000000000000000000000000000000000000000 DUP2 MSTORE POP SWAP1 POP PUSH2 0x233 JUMP JUMPDEST PUSH2 0x514 DUP3 LT ISZERO DUP1 ISZERO PUSH2 0x114 JUMPI POP PUSH2 0x708 DUP3 LT JUMPDEST ISZERO PUSH2 0x156 JUMPI PUSH1 0x40 MLOAD DUP1 PUSH1 0x40 ADD PUSH1 0x40 MSTORE DUP1 PUSH1 0xA DUP2 MSTORE PUSH1 0x20 ADD PUSH32 0x41667465726E6F6F6E2100000000000000000000000000000000000000000000 DUP2 MSTORE POP SWAP1 POP PUSH2 0x233 JUMP JUMPDEST PUSH2 0x708 DUP3 LT ISZERO DUP1 ISZERO PUSH2 0x16A JUMPI POP PUSH2 0x898 DUP3 GT ISZERO JUMPDEST ISZERO PUSH2 0x1AC JUMPI PUSH1 0x40 MLOAD DUP1 PUSH1 0x40 ADD PUSH1 0x40 MSTORE DUP1 PUSH1 0x8 DUP2 MSTORE PUSH1 0x20 ADD PUSH32 0x4576656E696E6721000000000000000000000000000000000000000000000000 DUP2 MSTORE POP SWAP1 POP PUSH2 0x233 JUMP JUMPDEST PUSH2 0x4B0 DUP3 LT ISZERO DUP1 ISZERO PUSH2 0x1BF JUMPI POP PUSH2 0x514 DUP3 LT JUMPDEST ISZERO PUSH2 0x1F6 JUMPI PUSH1 0x40 MLOAD PUSH32 0x6E24FDAB00000000000000000000000000000000000000000000000000000000 DUP2 MSTORE PUSH1 0x4 ADD PUSH1 0x40 MLOAD DUP1 SWAP2 SUB SWAP1 REVERT JUMPDEST DUP2 PUSH1 0x40 MLOAD PUSH32 0x519B5A9400000000000000000000000000000000000000000000000000000000 DUP2 MSTORE PUSH1 0x4 ADD PUSH2 0x22A SWAP2 SWAP1 PUSH2 0x496 JUMP JUMPDEST PUSH1 0x40 MLOAD DUP1 SWAP2 SUB SWAP1 REVERT JUMPDEST SWAP2 SWAP1 POP JUMP JUMPDEST PUSH1 0x60 PUSH0 PUSH1 0xF DUP4 PUSH2 0x248 SWAP2 SWAP1 PUSH2 0x4DC JUMP JUMPDEST SUB PUSH2 0x28A JUMPI PUSH1 0x40 MLOAD DUP1 PUSH1 0x40 ADD PUSH1 0x40 MSTORE DUP1 PUSH1 0x8 DUP2 MSTORE PUSH1 0x20 ADD PUSH32 0x46697A7A42757A7A000000000000000000000000000000000000000000000000 DUP2 MSTORE POP SWAP1 POP PUSH2 0x363 JUMP JUMPDEST PUSH0 PUSH1 0x3 DUP4 PUSH2 0x298 SWAP2 SWAP1 PUSH2 0x4DC JUMP JUMPDEST SUB PUSH2 0x2DA JUMPI PUSH1 0x40 MLOAD DUP1 PUSH1 0x40 ADD PUSH1 0x40 MSTORE DUP1 PUSH1 0x4 DUP2 MSTORE PUSH1 0x20 ADD PUSH32 0x46697A7A00000000000000000000000000000000000000000000000000000000 DUP2 MSTORE POP SWAP1 POP PUSH2 0x363 JUMP JUMPDEST PUSH0 PUSH1 0x5 DUP4 PUSH2 0x2E8 SWAP2 SWAP1 PUSH2 0x4DC JUMP JUMPDEST SUB PUSH2 0x32A JUMPI PUSH1 0x40 MLOAD DUP1 PUSH1 0x40 ADD PUSH1 0x40 MSTORE DUP1 PUSH1 0x4 DUP2 MSTORE PUSH1 0x20 ADD PUSH32 0x42757A7A00000000000000000000000000000000000000000000000000000000 DUP2 MSTORE POP SWAP1 POP PUSH2 0x363 JUMP JUMPDEST PUSH1 0x40 MLOAD DUP1 PUSH1 0x40 ADD PUSH1 0x40 MSTORE DUP1 PUSH1 0x5 DUP2 MSTORE PUSH1 0x20 ADD PUSH32 0x53706C6174000000000000000000000000000000000000000000000000000000 DUP2 MSTORE POP SWAP1 POP JUMPDEST SWAP2 SWAP1 POP JUMP JUMPDEST PUSH0 PUSH0 REVERT JUMPDEST PUSH0 DUP2 SWAP1 POP SWAP2 SWAP1 POP JUMP JUMPDEST PUSH2 0x37E DUP2 PUSH2 0x36C JUMP JUMPDEST DUP2 EQ PUSH2 0x388 JUMPI PUSH0 PUSH0 REVERT JUMPDEST POP JUMP JUMPDEST PUSH0 DUP2 CALLDATALOAD SWAP1 POP PUSH2 0x399 DUP2 PUSH2 0x375 JUMP JUMPDEST SWAP3 SWAP2 POP POP JUMP JUMPDEST PUSH0 PUSH1 0x20 DUP3 DUP5 SUB SLT ISZERO PUSH2 0x3B4 JUMPI PUSH2 0x3B3 PUSH2 0x368 JUMP JUMPDEST JUMPDEST PUSH0 PUSH2 0x3C1 DUP5 DUP3 DUP6 ADD PUSH2 0x38B JUMP JUMPDEST SWAP2 POP POP SWAP3 SWAP2 POP POP JUMP JUMPDEST PUSH0 DUP2 MLOAD SWAP1 POP SWAP2 SWAP1 POP JUMP JUMPDEST PUSH0 DUP3 DUP3 MSTORE PUSH1 0x20 DUP3 ADD SWAP1 POP SWAP3 SWAP2 POP POP JUMP JUMPDEST DUP3 DUP2 DUP4 MCOPY PUSH0 DUP4 DUP4 ADD MSTORE POP POP POP JUMP JUMPDEST PUSH0 PUSH1 0x1F NOT PUSH1 0x1F DUP4 ADD AND SWAP1 POP SWAP2 SWAP1 POP JUMP JUMPDEST PUSH0 PUSH2 0x40C DUP3 PUSH2 0x3CA JUMP JUMPDEST PUSH2 0x416 DUP2 DUP6 PUSH2 0x3D4 JUMP JUMPDEST SWAP4 POP PUSH2 0x426 DUP2 DUP6 PUSH1 0x20 DUP7 ADD PUSH2 0x3E4 JUMP JUMPDEST PUSH2 0x42F DUP2 PUSH2 0x3F2 JUMP JUMPDEST DUP5 ADD SWAP2 POP POP SWAP3 SWAP2 POP POP JUMP JUMPDEST PUSH0 PUSH1 0x20 DUP3 ADD SWAP1 POP DUP2 DUP2 SUB PUSH0 DUP4 ADD MSTORE PUSH2 0x452 DUP2 DUP5 PUSH2 0x402 JUMP JUMPDEST SWAP1 POP SWAP3 SWAP2 POP POP JUMP JUMPDEST PUSH32 0x4E487B7100000000000000000000000000000000000000000000000000000000 PUSH0 MSTORE PUSH1 0x1 PUSH1 0x4 MSTORE PUSH1 0x24 PUSH0 REVERT JUMPDEST PUSH2 0x490 DUP2 PUSH2 0x36C JUMP JUMPDEST DUP3 MSTORE POP POP JUMP JUMPDEST PUSH0 PUSH1 0x20 DUP3 ADD SWAP1 POP PUSH2 0x4A9 PUSH0 DUP4 ADD DUP5 PUSH2 0x487 JUMP JUMPDEST SWAP3 SWAP2 POP POP JUMP JUMPDEST PUSH32 0x4E487B7100000000000000000000000000000000000000000000000000000000 PUSH0 MSTORE PUSH1 0x12 PUSH1 0x4 MSTORE PUSH1 0x24 PUSH0 REVERT JUMPDEST PUSH0 PUSH2 0x4E6 DUP3 PUSH2 0x36C JUMP JUMPDEST SWAP2 POP PUSH2 0x4F1 DUP4 PUSH2 0x36C JUMP JUMPDEST SWAP3 POP DUP3 PUSH2 0x501 JUMPI PUSH2 0x500 PUSH2 0x4AF JUMP JUMPDEST JUMPDEST DUP3 DUP3 MOD SWAP1 POP SWAP3 SWAP2 POP POP JUMP INVALID LOG2 PUSH5 0x6970667358 0x22 SLT KECCAK256 NOT PUSH16 0x52C4A360E58E796DB5D55950FCBF1798 BLOBBASEFEE MUL RETURNDATACOPY PUSH12 0x39904952989BF9A06EE96473 PUSH16 0x6C634300081F00330000000000000000 "
				},
				"gasEstimates": {
					"creation": {
						"codeDepositCost": "269200",
						"executionCost": "310",
						"totalCost": "269510"
					},
					"external": {
						"checkDivisibility(uint256)": "infinite",
						"getStatusByTime(uint256)": "infinite"
					}
				},
				"methodIdentifiers": {
					"checkDivisibility(uint256)": "30e7f6bb",
					"getStatusByTime(uint256)": "03b06eb1"
				}
			},
			"storageLayout": {
				"storage": [],
				"types": null
			},
			"userdoc": {
				"kind": "user",
				"methods": {},
				"version": 1
			}
		}
	}
}